{
  "_format": "hh-sol-artifact-1",
  "contractName": "NFT",
  "sourceName": "contracts/nft.sol",
  "abi": [
    {
      "inputs": [],
      "stateMutability": "nonpayable",
      "type": "constructor"
    },
    {
      "anonymous": false,
      "inputs": [
        {
          "indexed": true,
          "internalType": "address",
          "name": "owner",
          "type": "address"
        },
        {
          "indexed": true,
          "internalType": "address",
          "name": "approved",
          "type": "address"
        },
        {
          "indexed": true,
          "internalType": "uint256",
          "name": "tokenId",
          "type": "uint256"
        }
      ],
      "name": "Approval",
      "type": "event"
    },
    {
      "anonymous": false,
      "inputs": [
        {
          "indexed": true,
          "internalType": "address",
          "name": "owner",
          "type": "address"
        },
        {
          "indexed": true,
          "internalType": "address",
          "name": "operator",
          "type": "address"
        },
        {
          "indexed": false,
          "internalType": "bool",
          "name": "approved",
          "type": "bool"
        }
      ],
      "name": "ApprovalForAll",
      "type": "event"
    },
    {
      "anonymous": false,
      "inputs": [
        {
          "indexed": true,
          "internalType": "address",
          "name": "from",
          "type": "address"
        },
        {
          "indexed": true,
          "internalType": "address",
          "name": "to",
          "type": "address"
        },
        {
          "indexed": true,
          "internalType": "uint256",
          "name": "tokenId",
          "type": "uint256"
        }
      ],
      "name": "Transfer",
      "type": "event"
    },
    {
      "inputs": [
        {
          "internalType": "address",
          "name": "player",
          "type": "address"
        }
      ],
      "name": "Mint",
      "outputs": [
        {
          "internalType": "uint256",
          "name": "",
          "type": "uint256"
        }
      ],
      "stateMutability": "nonpayable",
      "type": "function"
    },
    {
      "inputs": [
        {
          "internalType": "address",
          "name": "to",
          "type": "address"
        },
        {
          "internalType": "uint256",
          "name": "tokenId",
          "type": "uint256"
        }
      ],
      "name": "approve",
      "outputs": [],
      "stateMutability": "nonpayable",
      "type": "function"
    },
    {
      "inputs": [
        {
          "internalType": "address",
          "name": "owner",
          "type": "address"
        }
      ],
      "name": "balanceOf",
      "outputs": [
        {
          "internalType": "uint256",
          "name": "",
          "type": "uint256"
        }
      ],
      "stateMutability": "view",
      "type": "function"
    },
    {
      "inputs": [
        {
          "internalType": "uint256",
          "name": "tokenId",
          "type": "uint256"
        }
      ],
      "name": "getApproved",
      "outputs": [
        {
          "internalType": "address",
          "name": "",
          "type": "address"
        }
      ],
      "stateMutability": "view",
      "type": "function"
    },
    {
      "inputs": [],
      "name": "getBaseURI",
      "outputs": [
        {
          "internalType": "string",
          "name": "",
          "type": "string"
        }
      ],
      "stateMutability": "pure",
      "type": "function"
    },
    {
      "inputs": [
        {
          "internalType": "address",
          "name": "owner",
          "type": "address"
        },
        {
          "internalType": "address",
          "name": "operator",
          "type": "address"
        }
      ],
      "name": "isApprovedForAll",
      "outputs": [
        {
          "internalType": "bool",
          "name": "",
          "type": "bool"
        }
      ],
      "stateMutability": "view",
      "type": "function"
    },
    {
      "inputs": [],
      "name": "name",
      "outputs": [
        {
          "internalType": "string",
          "name": "",
          "type": "string"
        }
      ],
      "stateMutability": "view",
      "type": "function"
    },
    {
      "inputs": [],
      "name": "owner",
      "outputs": [
        {
          "internalType": "address",
          "name": "",
          "type": "address"
        }
      ],
      "stateMutability": "view",
      "type": "function"
    },
    {
      "inputs": [
        {
          "internalType": "uint256",
          "name": "tokenId",
          "type": "uint256"
        }
      ],
      "name": "ownerOf",
      "outputs": [
        {
          "internalType": "address",
          "name": "",
          "type": "address"
        }
      ],
      "stateMutability": "view",
      "type": "function"
    },
    {
      "inputs": [
        {
          "internalType": "address",
          "name": "from",
          "type": "address"
        },
        {
          "internalType": "address",
          "name": "to",
          "type": "address"
        },
        {
          "internalType": "uint256",
          "name": "tokenId",
          "type": "uint256"
        }
      ],
      "name": "safeTransferFrom",
      "outputs": [],
      "stateMutability": "nonpayable",
      "type": "function"
    },
    {
      "inputs": [
        {
          "internalType": "address",
          "name": "from",
          "type": "address"
        },
        {
          "internalType": "address",
          "name": "to",
          "type": "address"
        },
        {
          "internalType": "uint256",
          "name": "tokenId",
          "type": "uint256"
        },
        {
          "internalType": "bytes",
          "name": "_data",
          "type": "bytes"
        }
      ],
      "name": "safeTransferFrom",
      "outputs": [],
      "stateMutability": "nonpayable",
      "type": "function"
    },
    {
      "inputs": [
        {
          "internalType": "address",
          "name": "operator",
          "type": "address"
        },
        {
          "internalType": "bool",
          "name": "approved",
          "type": "bool"
        }
      ],
      "name": "setApprovalForAll",
      "outputs": [],
      "stateMutability": "nonpayable",
      "type": "function"
    },
    {
      "inputs": [
        {
          "internalType": "bytes4",
          "name": "interfaceId",
          "type": "bytes4"
        }
      ],
      "name": "supportsInterface",
      "outputs": [
        {
          "internalType": "bool",
          "name": "",
          "type": "bool"
        }
      ],
      "stateMutability": "view",
      "type": "function"
    },
    {
      "inputs": [],
      "name": "symbol",
      "outputs": [
        {
          "internalType": "string",
          "name": "",
          "type": "string"
        }
      ],
      "stateMutability": "view",
      "type": "function"
    },
    {
      "inputs": [
        {
          "internalType": "uint256",
          "name": "tokenId",
          "type": "uint256"
        }
      ],
      "name": "tokenURI",
      "outputs": [
        {
          "internalType": "string",
          "name": "",
          "type": "string"
        }
      ],
      "stateMutability": "view",
      "type": "function"
    },
    {
      "inputs": [
        {
          "internalType": "address",
          "name": "from",
          "type": "address"
        },
        {
          "internalType": "address",
          "name": "to",
          "type": "address"
        },
        {
          "internalType": "uint256",
          "name": "tokenId",
          "type": "uint256"
        }
      ],
      "name": "transferFrom",
      "outputs": [],
      "stateMutability": "nonpayable",
      "type": "function"
    }
  ],
  "bytecode": "0x60806040523480156200001157600080fd5b506040518060400160405280600981526020017f53616d706c654e465400000000000000000000000000000000000000000000008152506040518060400160405280600681526020017f4d545f4e66740000000000000000000000000000000000000000000000000000815250816000908051906020019062000096929190620000f9565b508060019080519060200190620000af929190620000f9565b50505033600760006101000a81548173ffffffffffffffffffffffffffffffffffffffff021916908373ffffffffffffffffffffffffffffffffffffffff1602179055506200020e565b8280546200010790620001a9565b90600052602060002090601f0160209004810192826200012b576000855562000177565b82601f106200014657805160ff191683800117855562000177565b8280016001018555821562000177579182015b828111156200017657825182559160200191906001019062000159565b5b5090506200018691906200018a565b5090565b5b80821115620001a55760008160009055506001016200018b565b5090565b60006002820490506001821680620001c257607f821691505b60208210811415620001d957620001d8620001df565b5b50919050565b7f4e487b7100000000000000000000000000000000000000000000000000000000600052602260045260246000fd5b61279e806200021e6000396000f3fe608060405234801561001057600080fd5b50600436106101005760003560e01c806370a0823111610097578063a22cb46511610066578063a22cb465146102c1578063b88d4fde146102dd578063c87b56dd146102f9578063e985e9c51461032957610100565b806370a0823114610237578063714c5398146102675780638da5cb5b1461028557806395d89b41146102a357610100565b806323b872dd116100d357806323b872dd1461019f5780633c3284d1146101bb57806342842e0e146101eb5780636352211e1461020757610100565b806301ffc9a71461010557806306fdde0314610135578063081812fc14610153578063095ea7b314610183575b600080fd5b61011f600480360381019061011a91906119a0565b610359565b60405161012c9190611d60565b60405180910390f35b61013d61043b565b60405161014a9190611d7b565b60405180910390f35b61016d600480360381019061016891906119f2565b6104cd565b60405161017a9190611cf9565b60405180910390f35b61019d60048036038101906101989190611964565b610552565b005b6101b960048036038101906101b4919061185e565b61066a565b005b6101d560048036038101906101d091906117f9565b6106ca565b6040516101e29190611f5d565b60405180910390f35b6102056004803603810190610200919061185e565b6106f7565b005b610221600480360381019061021c91906119f2565b610717565b60405161022e9190611cf9565b60405180910390f35b610251600480360381019061024c91906117f9565b6107c9565b60405161025e9190611f5d565b60405180910390f35b61026f610881565b60405161027c9190611d7b565b60405180910390f35b61028d6108be565b60405161029a9190611cf9565b60405180910390f35b6102ab6108e4565b6040516102b89190611d7b565b60405180910390f35b6102db60048036038101906102d69190611928565b610976565b005b6102f760048036038101906102f291906118ad565b61098c565b005b610313600480360381019061030e91906119f2565b6109ee565b6040516103209190611d7b565b60405180910390f35b610343600480360381019061033e9190611822565b610a95565b6040516103509190611d60565b60405180910390f35b60007f80ac58cd000000000000000000000000000000000000000000000000000000007bffffffffffffffffffffffffffffffffffffffffffffffffffffffff1916827bffffffffffffffffffffffffffffffffffffffffffffffffffffffff1916148061042457507f5b5e139f000000000000000000000000000000000000000000000000000000007bffffffffffffffffffffffffffffffffffffffffffffffffffffffff1916827bffffffffffffffffffffffffffffffffffffffffffffffffffffffff1916145b80610434575061043382610b29565b5b9050919050565b60606000805461044a90612182565b80601f016020809104026020016040519081016040528092919081815260200182805461047690612182565b80156104c35780601f10610498576101008083540402835291602001916104c3565b820191906000526020600020905b8154815290600101906020018083116104a657829003601f168201915b5050505050905090565b60006104d882610b93565b610517576040517f08c379a000000000000000000000000000000000000000000000000000000000815260040161050e90611ebd565b60405180910390fd5b6004600083815260200190815260200160002060009054906101000a900473ffffffffffffffffffffffffffffffffffffffff169050919050565b600061055d82610717565b90508073ffffffffffffffffffffffffffffffffffffffff168373ffffffffffffffffffffffffffffffffffffffff1614156105ce576040517f08c379a00000000000000000000000000000000000000000000000000000000081526004016105c590611f1d565b60405180910390fd5b8073ffffffffffffffffffffffffffffffffffffffff166105ed610bff565b73ffffffffffffffffffffffffffffffffffffffff16148061061c575061061b81610616610bff565b610a95565b5b61065b576040517f08c379a000000000000000000000000000000000000000000000000000000000815260040161065290611e3d565b60405180910390fd5b6106658383610c07565b505050565b61067b610675610bff565b82610cc0565b6106ba576040517f08c379a00000000000000000000000000000000000000000000000000000000081526004016106b190611f3d565b60405180910390fd5b6106c5838383610d9e565b505050565b60006106d66006610ffa565b60006106e26006611010565b90506106ee838261101e565b80915050919050565b6107128383836040518060200160405280600081525061098c565b505050565b6000806002600084815260200190815260200160002060009054906101000a900473ffffffffffffffffffffffffffffffffffffffff169050600073ffffffffffffffffffffffffffffffffffffffff168173ffffffffffffffffffffffffffffffffffffffff1614156107c0576040517f08c379a00000000000000000000000000000000000000000000000000000000081526004016107b790611e7d565b60405180910390fd5b80915050919050565b60008073ffffffffffffffffffffffffffffffffffffffff168273ffffffffffffffffffffffffffffffffffffffff16141561083a576040517f08c379a000000000000000000000000000000000000000000000000000000000815260040161083190611e5d565b60405180910390fd5b600360008373ffffffffffffffffffffffffffffffffffffffff1673ffffffffffffffffffffffffffffffffffffffff168152602001908152602001600020549050919050565b60606040518060400160405280601981526020017f687474703a2f2f6c6f63616c686f73743a333030302f6e667400000000000000815250905090565b600760009054906101000a900473ffffffffffffffffffffffffffffffffffffffff1681565b6060600180546108f390612182565b80601f016020809104026020016040519081016040528092919081815260200182805461091f90612182565b801561096c5780601f106109415761010080835404028352916020019161096c565b820191906000526020600020905b81548152906001019060200180831161094f57829003601f168201915b5050505050905090565b610988610981610bff565b83836111ec565b5050565b61099d610997610bff565b83610cc0565b6109dc576040517f08c379a00000000000000000000000000000000000000000000000000000000081526004016109d390611f3d565b60405180910390fd5b6109e884848484611359565b50505050565b60606109f982610b93565b610a38576040517f08c379a0000000000000000000000000000000000000000000000000000000008152600401610a2f90611efd565b60405180910390fd5b6000610a426113b5565b90506000815111610a625760405180602001604052806000815250610a8d565b80610a6c846113cc565b604051602001610a7d929190611cd5565b6040516020818303038152906040525b915050919050565b6000600560008473ffffffffffffffffffffffffffffffffffffffff1673ffffffffffffffffffffffffffffffffffffffff16815260200190815260200160002060008373ffffffffffffffffffffffffffffffffffffffff1673ffffffffffffffffffffffffffffffffffffffff16815260200190815260200160002060009054906101000a900460ff16905092915050565b60007f01ffc9a7000000000000000000000000000000000000000000000000000000007bffffffffffffffffffffffffffffffffffffffffffffffffffffffff1916827bffffffffffffffffffffffffffffffffffffffffffffffffffffffff1916149050919050565b60008073ffffffffffffffffffffffffffffffffffffffff166002600084815260200190815260200160002060009054906101000a900473ffffffffffffffffffffffffffffffffffffffff1673ffffffffffffffffffffffffffffffffffffffff1614159050919050565b600033905090565b816004600083815260200190815260200160002060006101000a81548173ffffffffffffffffffffffffffffffffffffffff021916908373ffffffffffffffffffffffffffffffffffffffff160217905550808273ffffffffffffffffffffffffffffffffffffffff16610c7a83610717565b73ffffffffffffffffffffffffffffffffffffffff167f8c5be1e5ebec7d5bd14f71427d1e84f3dd0314c0f7b2291e5b200ac8c7c3b92560405160405180910390a45050565b6000610ccb82610b93565b610d0a576040517f08c379a0000000000000000000000000000000000000000000000000000000008152600401610d0190611e1d565b60405180910390fd5b6000610d1583610717565b90508073ffffffffffffffffffffffffffffffffffffffff168473ffffffffffffffffffffffffffffffffffffffff161480610d8457508373ffffffffffffffffffffffffffffffffffffffff16610d6c846104cd565b73ffffffffffffffffffffffffffffffffffffffff16145b80610d955750610d948185610a95565b5b91505092915050565b8273ffffffffffffffffffffffffffffffffffffffff16610dbe82610717565b73ffffffffffffffffffffffffffffffffffffffff1614610e14576040517f08c379a0000000000000000000000000000000000000000000000000000000008152600401610e0b90611edd565b60405180910390fd5b600073ffffffffffffffffffffffffffffffffffffffff168273ffffffffffffffffffffffffffffffffffffffff161415610e84576040517f08c379a0000000000000000000000000000000000000000000000000000000008152600401610e7b90611ddd565b60405180910390fd5b610e8f838383611579565b610e9a600082610c07565b6001600360008573ffffffffffffffffffffffffffffffffffffffff1673ffffffffffffffffffffffffffffffffffffffff1681526020019081526020016000206000828254610eea9190612098565b925050819055506001600360008473ffffffffffffffffffffffffffffffffffffffff1673ffffffffffffffffffffffffffffffffffffffff1681526020019081526020016000206000828254610f419190612011565b92505081905550816002600083815260200190815260200160002060006101000a81548173ffffffffffffffffffffffffffffffffffffffff021916908373ffffffffffffffffffffffffffffffffffffffff160217905550808273ffffffffffffffffffffffffffffffffffffffff168473ffffffffffffffffffffffffffffffffffffffff167fddf252ad1be2c89b69c2b068fc378daa952ba7f163c4a11628f55a4df523b3ef60405160405180910390a4505050565b6001816000016000828254019250508190555050565b600081600001549050919050565b600073ffffffffffffffffffffffffffffffffffffffff168273ffffffffffffffffffffffffffffffffffffffff16141561108e576040517f08c379a000000000000000000000000000000000000000000000000000000000815260040161108590611e9d565b60405180910390fd5b61109781610b93565b156110d7576040517f08c379a00000000000000000000000000000000000000000000000000000000081526004016110ce90611dbd565b60405180910390fd5b6110e360008383611579565b6001600360008473ffffffffffffffffffffffffffffffffffffffff1673ffffffffffffffffffffffffffffffffffffffff16815260200190815260200160002060008282546111339190612011565b92505081905550816002600083815260200190815260200160002060006101000a81548173ffffffffffffffffffffffffffffffffffffffff021916908373ffffffffffffffffffffffffffffffffffffffff160217905550808273ffffffffffffffffffffffffffffffffffffffff16600073ffffffffffffffffffffffffffffffffffffffff167fddf252ad1be2c89b69c2b068fc378daa952ba7f163c4a11628f55a4df523b3ef60405160405180910390a45050565b8173ffffffffffffffffffffffffffffffffffffffff168373ffffffffffffffffffffffffffffffffffffffff16141561125b576040517f08c379a000000000000000000000000000000000000000000000000000000000815260040161125290611dfd565b60405180910390fd5b80600560008573ffffffffffffffffffffffffffffffffffffffff1673ffffffffffffffffffffffffffffffffffffffff16815260200190815260200160002060008473ffffffffffffffffffffffffffffffffffffffff1673ffffffffffffffffffffffffffffffffffffffff16815260200190815260200160002060006101000a81548160ff0219169083151502179055508173ffffffffffffffffffffffffffffffffffffffff168373ffffffffffffffffffffffffffffffffffffffff167f17307eab39ab6107e8899845ad3d59bd9653f200f220920489ca2b5937696c318360405161134c9190611d60565b60405180910390a3505050565b611364848484610d9e565b6113708484848461157e565b6113af576040517f08c379a00000000000000000000000000000000000000000000000000000000081526004016113a690611d9d565b60405180910390fd5b50505050565b606060405180602001604052806000815250905090565b60606000821415611414576040518060400160405280600181526020017f30000000000000000000000000000000000000000000000000000000000000008152509050611574565b600082905060005b6000821461144657808061142f906121e5565b915050600a8261143f9190612067565b915061141c565b60008167ffffffffffffffff811115611488577f4e487b7100000000000000000000000000000000000000000000000000000000600052604160045260246000fd5b6040519080825280601f01601f1916602001820160405280156114ba5781602001600182028036833780820191505090505b5090505b6000851461156d576001826114d39190612098565b9150600a856114e2919061222e565b60306114ee9190612011565b60f81b81838151811061152a577f4e487b7100000000000000000000000000000000000000000000000000000000600052603260045260246000fd5b60200101907effffffffffffffffffffffffffffffffffffffffffffffffffffffffffffff1916908160001a905350600a856115669190612067565b94506114be565b8093505050505b919050565b505050565b600061159f8473ffffffffffffffffffffffffffffffffffffffff16611715565b15611708578373ffffffffffffffffffffffffffffffffffffffff1663150b7a026115c8610bff565b8786866040518563ffffffff1660e01b81526004016115ea9493929190611d14565b602060405180830381600087803b15801561160457600080fd5b505af192505050801561163557506040513d601f19601f8201168201806040525081019061163291906119c9565b60015b6116b8573d8060008114611665576040519150601f19603f3d011682016040523d82523d6000602084013e61166a565b606091505b506000815114156116b0576040517f08c379a00000000000000000000000000000000000000000000000000000000081526004016116a790611d9d565b60405180910390fd5b805181602001fd5b63150b7a0260e01b7bffffffffffffffffffffffffffffffffffffffffffffffffffffffff1916817bffffffffffffffffffffffffffffffffffffffffffffffffffffffff19161491505061170d565b600190505b949350505050565b600080823b905060008111915050919050565b600061173b61173684611f9d565b611f78565b90508281526020810184848401111561175357600080fd5b61175e848285612140565b509392505050565b6000813590506117758161270c565b92915050565b60008135905061178a81612723565b92915050565b60008135905061179f8161273a565b92915050565b6000815190506117b48161273a565b92915050565b600082601f8301126117cb57600080fd5b81356117db848260208601611728565b91505092915050565b6000813590506117f381612751565b92915050565b60006020828403121561180b57600080fd5b600061181984828501611766565b91505092915050565b6000806040838503121561183557600080fd5b600061184385828601611766565b925050602061185485828601611766565b9150509250929050565b60008060006060848603121561187357600080fd5b600061188186828701611766565b935050602061189286828701611766565b92505060406118a3868287016117e4565b9150509250925092565b600080600080608085870312156118c357600080fd5b60006118d187828801611766565b94505060206118e287828801611766565b93505060406118f3878288016117e4565b925050606085013567ffffffffffffffff81111561191057600080fd5b61191c878288016117ba565b91505092959194509250565b6000806040838503121561193b57600080fd5b600061194985828601611766565b925050602061195a8582860161177b565b9150509250929050565b6000806040838503121561197757600080fd5b600061198585828601611766565b9250506020611996858286016117e4565b9150509250929050565b6000602082840312156119b257600080fd5b60006119c084828501611790565b91505092915050565b6000602082840312156119db57600080fd5b60006119e9848285016117a5565b91505092915050565b600060208284031215611a0457600080fd5b6000611a12848285016117e4565b91505092915050565b611a24816120cc565b82525050565b611a33816120de565b82525050565b6000611a4482611fce565b611a4e8185611fe4565b9350611a5e81856020860161214f565b611a678161231b565b840191505092915050565b6000611a7d82611fd9565b611a878185611ff5565b9350611a9781856020860161214f565b611aa08161231b565b840191505092915050565b6000611ab682611fd9565b611ac08185612006565b9350611ad081856020860161214f565b80840191505092915050565b6000611ae9603283611ff5565b9150611af48261232c565b604082019050919050565b6000611b0c601c83611ff5565b9150611b178261237b565b602082019050919050565b6000611b2f602483611ff5565b9150611b3a826123a4565b604082019050919050565b6000611b52601983611ff5565b9150611b5d826123f3565b602082019050919050565b6000611b75602c83611ff5565b9150611b808261241c565b604082019050919050565b6000611b98603883611ff5565b9150611ba38261246b565b604082019050919050565b6000611bbb602a83611ff5565b9150611bc6826124ba565b604082019050919050565b6000611bde602983611ff5565b9150611be982612509565b604082019050919050565b6000611c01602083611ff5565b9150611c0c82612558565b602082019050919050565b6000611c24602c83611ff5565b9150611c2f82612581565b604082019050919050565b6000611c47602983611ff5565b9150611c52826125d0565b604082019050919050565b6000611c6a602f83611ff5565b9150611c758261261f565b604082019050919050565b6000611c8d602183611ff5565b9150611c988261266e565b604082019050919050565b6000611cb0603183611ff5565b9150611cbb826126bd565b604082019050919050565b611ccf81612136565b82525050565b6000611ce18285611aab565b9150611ced8284611aab565b91508190509392505050565b6000602082019050611d0e6000830184611a1b565b92915050565b6000608082019050611d296000830187611a1b565b611d366020830186611a1b565b611d436040830185611cc6565b8181036060830152611d558184611a39565b905095945050505050565b6000602082019050611d756000830184611a2a565b92915050565b60006020820190508181036000830152611d958184611a72565b905092915050565b60006020820190508181036000830152611db681611adc565b9050919050565b60006020820190508181036000830152611dd681611aff565b9050919050565b60006020820190508181036000830152611df681611b22565b9050919050565b60006020820190508181036000830152611e1681611b45565b9050919050565b60006020820190508181036000830152611e3681611b68565b9050919050565b60006020820190508181036000830152611e5681611b8b565b9050919050565b60006020820190508181036000830152611e7681611bae565b9050919050565b60006020820190508181036000830152611e9681611bd1565b9050919050565b60006020820190508181036000830152611eb681611bf4565b9050919050565b60006020820190508181036000830152611ed681611c17565b9050919050565b60006020820190508181036000830152611ef681611c3a565b9050919050565b60006020820190508181036000830152611f1681611c5d565b9050919050565b60006020820190508181036000830152611f3681611c80565b9050919050565b60006020820190508181036000830152611f5681611ca3565b9050919050565b6000602082019050611f726000830184611cc6565b92915050565b6000611f82611f93565b9050611f8e82826121b4565b919050565b6000604051905090565b600067ffffffffffffffff821115611fb857611fb76122ec565b5b611fc18261231b565b9050602081019050919050565b600081519050919050565b600081519050919050565b600082825260208201905092915050565b600082825260208201905092915050565b600081905092915050565b600061201c82612136565b915061202783612136565b9250827fffffffffffffffffffffffffffffffffffffffffffffffffffffffffffffffff0382111561205c5761205b61225f565b5b828201905092915050565b600061207282612136565b915061207d83612136565b92508261208d5761208c61228e565b5b828204905092915050565b60006120a382612136565b91506120ae83612136565b9250828210156120c1576120c061225f565b5b828203905092915050565b60006120d782612116565b9050919050565b60008115159050919050565b60007fffffffff0000000000000000000000000000000000000000000000000000000082169050919050565b600073ffffffffffffffffffffffffffffffffffffffff82169050919050565b6000819050919050565b82818337600083830152505050565b60005b8381101561216d578082015181840152602081019050612152565b8381111561217c576000848401525b50505050565b6000600282049050600182168061219a57607f821691505b602082108114156121ae576121ad6122bd565b5b50919050565b6121bd8261231b565b810181811067ffffffffffffffff821117156121dc576121db6122ec565b5b80604052505050565b60006121f082612136565b91507fffffffffffffffffffffffffffffffffffffffffffffffffffffffffffffffff8214156122235761222261225f565b5b600182019050919050565b600061223982612136565b915061224483612136565b9250826122545761225361228e565b5b828206905092915050565b7f4e487b7100000000000000000000000000000000000000000000000000000000600052601160045260246000fd5b7f4e487b7100000000000000000000000000000000000000000000000000000000600052601260045260246000fd5b7f4e487b7100000000000000000000000000000000000000000000000000000000600052602260045260246000fd5b7f4e487b7100000000000000000000000000000000000000000000000000000000600052604160045260246000fd5b6000601f19601f8301169050919050565b7f4552433732313a207472616e7366657220746f206e6f6e20455243373231526560008201527f63656976657220696d706c656d656e7465720000000000000000000000000000602082015250565b7f4552433732313a20746f6b656e20616c7265616479206d696e74656400000000600082015250565b7f4552433732313a207472616e7366657220746f20746865207a65726f2061646460008201527f7265737300000000000000000000000000000000000000000000000000000000602082015250565b7f4552433732313a20617070726f766520746f2063616c6c657200000000000000600082015250565b7f4552433732313a206f70657261746f7220717565727920666f72206e6f6e657860008201527f697374656e7420746f6b656e0000000000000000000000000000000000000000602082015250565b7f4552433732313a20617070726f76652063616c6c6572206973206e6f74206f7760008201527f6e6572206e6f7220617070726f76656420666f7220616c6c0000000000000000602082015250565b7f4552433732313a2062616c616e636520717565727920666f7220746865207a6560008201527f726f206164647265737300000000000000000000000000000000000000000000602082015250565b7f4552433732313a206f776e657220717565727920666f72206e6f6e657869737460008201527f656e7420746f6b656e0000000000000000000000000000000000000000000000602082015250565b7f4552433732313a206d696e7420746f20746865207a65726f2061646472657373600082015250565b7f4552433732313a20617070726f76656420717565727920666f72206e6f6e657860008201527f697374656e7420746f6b656e0000000000000000000000000000000000000000602082015250565b7f4552433732313a207472616e73666572206f6620746f6b656e2074686174206960008201527f73206e6f74206f776e0000000000000000000000000000000000000000000000602082015250565b7f4552433732314d657461646174613a2055524920717565727920666f72206e6f60008201527f6e6578697374656e7420746f6b656e0000000000000000000000000000000000602082015250565b7f4552433732313a20617070726f76616c20746f2063757272656e74206f776e6560008201527f7200000000000000000000000000000000000000000000000000000000000000602082015250565b7f4552433732313a207472616e736665722063616c6c6572206973206e6f74206f60008201527f776e6572206e6f7220617070726f766564000000000000000000000000000000602082015250565b612715816120cc565b811461272057600080fd5b50565b61272c816120de565b811461273757600080fd5b50565b612743816120ea565b811461274e57600080fd5b50565b61275a81612136565b811461276557600080fd5b5056fea2646970667358221220a654e1db6e438235fac791978cf3a98cebd43fec5de9abdcd1e83b7513aaca6564736f6c63430008040033",
  "linkReferences": {},
  "deployedLinkReferences": {}
}